{
  "_format": "hh-sol-artifact-1",
  "contractName": "FHESlotMachine",
  "sourceName": "contracts/FHESlotMachine.sol",
  "abi": [
    {
      "inputs": [
        {
          "internalType": "uint256",
          "name": "_houseEdge",
          "type": "uint256"
        },
        {
          "internalType": "uint256",
          "name": "_jackpotThreshold",
          "type": "uint256"
        }
      ],
      "stateMutability": "nonpayable",
      "type": "constructor"
    },
    {
      "anonymous": false,
      "inputs": [
        {
          "indexed": true,
          "internalType": "address",
          "name": "player",
          "type": "address"
        },
        {
          "indexed": false,
          "internalType": "uint256",
          "name": "amount",
          "type": "uint256"
        }
      ],
      "name": "Deposit",
      "type": "event"
    },
    {
      "anonymous": false,
      "inputs": [
        {
          "indexed": true,
          "internalType": "address",
          "name": "player",
          "type": "address"
        },
        {
          "indexed": false,
          "internalType": "uint256",
          "name": "betAmount",
          "type": "uint256"
        },
        {
          "indexed": false,
          "internalType": "uint256",
          "name": "winnings",
          "type": "uint256"
        }
      ],
      "name": "Jackpot",
      "type": "event"
    },
    {
      "anonymous": false,
      "inputs": [
        {
          "indexed": true,
          "internalType": "address",
          "name": "previousOwner",
          "type": "address"
        },
        {
          "indexed": true,
          "internalType": "address",
          "name": "newOwner",
          "type": "address"
        }
      ],
      "name": "OwnershipTransferred",
      "type": "event"
    },
    {
      "anonymous": false,
      "inputs": [
        {
          "indexed": false,
          "internalType": "address",
          "name": "account",
          "type": "address"
        }
      ],
      "name": "Paused",
      "type": "event"
    },
    {
      "anonymous": false,
      "inputs": [
        {
          "indexed": true,
          "internalType": "address",
          "name": "player",
          "type": "address"
        },
        {
          "indexed": false,
          "internalType": "uint256",
          "name": "betAmount",
          "type": "uint256"
        },
        {
          "indexed": false,
          "internalType": "uint256",
          "name": "payout",
          "type": "uint256"
        },
        {
          "indexed": false,
          "internalType": "bool",
          "name": "isWin",
          "type": "bool"
        },
        {
          "indexed": false,
          "internalType": "uint8",
          "name": "symbol1",
          "type": "uint8"
        },
        {
          "indexed": false,
          "internalType": "uint8",
          "name": "symbol2",
          "type": "uint8"
        },
        {
          "indexed": false,
          "internalType": "uint8",
          "name": "symbol3",
          "type": "uint8"
        }
      ],
      "name": "Spin",
      "type": "event"
    },
    {
      "anonymous": false,
      "inputs": [
        {
          "indexed": false,
          "internalType": "address",
          "name": "account",
          "type": "address"
        }
      ],
      "name": "Unpaused",
      "type": "event"
    },
    {
      "anonymous": false,
      "inputs": [
        {
          "indexed": true,
          "internalType": "address",
          "name": "owner",
          "type": "address"
        },
        {
          "indexed": false,
          "internalType": "uint256",
          "name": "amount",
          "type": "uint256"
        }
      ],
      "name": "Withdraw",
      "type": "event"
    },
    {
      "inputs": [],
      "name": "deposit",
      "outputs": [],
      "stateMutability": "payable",
      "type": "function"
    },
    {
      "inputs": [],
      "name": "emergencyWithdraw",
      "outputs": [],
      "stateMutability": "nonpayable",
      "type": "function"
    },
    {
      "inputs": [],
      "name": "getPlayerBalance",
      "outputs": [
        {
          "internalType": "uint256",
          "name": "",
          "type": "uint256"
        }
      ],
      "stateMutability": "view",
      "type": "function"
    },
    {
      "inputs": [],
      "name": "houseEdge",
      "outputs": [
        {
          "internalType": "uint256",
          "name": "",
          "type": "uint256"
        }
      ],
      "stateMutability": "view",
      "type": "function"
    },
    {
      "inputs": [],
      "name": "jackpotThreshold",
      "outputs": [
        {
          "internalType": "uint256",
          "name": "",
          "type": "uint256"
        }
      ],
      "stateMutability": "view",
      "type": "function"
    },
    {
      "inputs": [],
      "name": "maxPayout",
      "outputs": [
        {
          "internalType": "uint256",
          "name": "",
          "type": "uint256"
        }
      ],
      "stateMutability": "view",
      "type": "function"
    },
    {
      "inputs": [],
      "name": "owner",
      "outputs": [
        {
          "internalType": "address",
          "name": "",
          "type": "address"
        }
      ],
      "stateMutability": "view",
      "type": "function"
    },
    {
      "inputs": [],
      "name": "pause",
      "outputs": [],
      "stateMutability": "nonpayable",
      "type": "function"
    },
    {
      "inputs": [],
      "name": "paused",
      "outputs": [
        {
          "internalType": "bool",
          "name": "",
          "type": "bool"
        }
      ],
      "stateMutability": "view",
      "type": "function"
    },
    {
      "inputs": [
        {
          "internalType": "address",
          "name": "",
          "type": "address"
        }
      ],
      "name": "playerBalances",
      "outputs": [
        {
          "internalType": "uint256",
          "name": "",
          "type": "uint256"
        }
      ],
      "stateMutability": "view",
      "type": "function"
    },
    {
      "inputs": [],
      "name": "protocolId",
      "outputs": [
        {
          "internalType": "uint256",
          "name": "",
          "type": "uint256"
        }
      ],
      "stateMutability": "pure",
      "type": "function"
    },
    {
      "inputs": [],
      "name": "renounceOwnership",
      "outputs": [],
      "stateMutability": "nonpayable",
      "type": "function"
    },
    {
      "inputs": [
        {
          "internalType": "uint256",
          "name": "_houseEdge",
          "type": "uint256"
        }
      ],
      "name": "setHouseEdge",
      "outputs": [],
      "stateMutability": "nonpayable",
      "type": "function"
    },
    {
      "inputs": [
        {
          "internalType": "uint256",
          "name": "_threshold",
          "type": "uint256"
        }
      ],
      "name": "setJackpotThreshold",
      "outputs": [],
      "stateMutability": "nonpayable",
      "type": "function"
    },
    {
      "inputs": [
        {
          "internalType": "uint256",
          "name": "betAmount",
          "type": "uint256"
        }
      ],
      "name": "spin",
      "outputs": [
        {
          "internalType": "uint256",
          "name": "",
          "type": "uint256"
        }
      ],
      "stateMutability": "nonpayable",
      "type": "function"
    },
    {
      "inputs": [],
      "name": "totalJackpot",
      "outputs": [
        {
          "internalType": "uint256",
          "name": "",
          "type": "uint256"
        }
      ],
      "stateMutability": "view",
      "type": "function"
    },
    {
      "inputs": [],
      "name": "totalLost",
      "outputs": [
        {
          "internalType": "uint256",
          "name": "",
          "type": "uint256"
        }
      ],
      "stateMutability": "view",
      "type": "function"
    },
    {
      "inputs": [],
      "name": "totalSpins",
      "outputs": [
        {
          "internalType": "uint256",
          "name": "",
          "type": "uint256"
        }
      ],
      "stateMutability": "view",
      "type": "function"
    },
    {
      "inputs": [],
      "name": "totalWon",
      "outputs": [
        {
          "internalType": "uint256",
          "name": "",
          "type": "uint256"
        }
      ],
      "stateMutability": "view",
      "type": "function"
    },
    {
      "inputs": [
        {
          "internalType": "address",
          "name": "newOwner",
          "type": "address"
        }
      ],
      "name": "transferOwnership",
      "outputs": [],
      "stateMutability": "nonpayable",
      "type": "function"
    },
    {
      "inputs": [],
      "name": "unpause",
      "outputs": [],
      "stateMutability": "nonpayable",
      "type": "function"
    },
    {
      "inputs": [
        {
          "internalType": "uint256",
          "name": "amount",
          "type": "uint256"
        }
      ],
      "name": "withdraw",
      "outputs": [],
      "stateMutability": "nonpayable",
      "type": "function"
    },
    {
      "stateMutability": "payable",
      "type": "receive"
    }
  ],
  "bytecode": "0x6101806040526000608081815260a091909152600160c081905260e052600261010052600561012052600a61014052600f610160526200004490600990600862000276565b503480156200005257600080fd5b506040516200138038038062001380833981016040819052620000759162000327565b620001f262000116604080516080810182526000808252602082018190529181018290526060810191909152506040805160808101825273687820221192c5b662b25367f70076a37bc79b6c815273848b0066793bcc60346da1f49049357399b8d595602082015273a02cda4ca3a71d7c46997716f4283aa851c2881291810191909152731364cbbf2cdf5032c47d8226a6f6fbd2afcdacac606082015290565b80517f9e7b61f58c47dc699ac88507c4f5bb9f121c03808c5676a8078fe583e464970080546001600160a01b03199081166001600160a01b039384161790915560208301517f9e7b61f58c47dc699ac88507c4f5bb9f121c03808c5676a8078fe583e46497018054831691841691909117905560408301517f9e7b61f58c47dc699ac88507c4f5bb9f121c03808c5676a8078fe583e46497028054831691841691909117905560608301517f9e7b61f58c47dc699ac88507c4f5bb9f121c03808c5676a8078fe583e46497038054909216921691909117905550565b620001fd3362000226565b6000805460ff60a01b1916905560019190915560025568056bc75e2d631000006004556200034c565b600080546001600160a01b038381166001600160a01b0319831681178455604051919092169283917f8be0079c531659141344cd1fd0a4f28419497f9722a3daafe3b4186f6b6457e09190a35050565b600183019183908215620002fe5791602002820160005b83821115620002cd57835183826101000a81548160ff021916908360ff16021790555092602001926001016020816000010492830192600103026200028d565b8015620002fc5782816101000a81549060ff0219169055600101602081600001049283019260010302620002cd565b505b506200030c92915062000310565b5090565b5b808211156200030c576000815560010162000311565b600080604083850312156200033b57600080fd5b505080516020909101519092909150565b611024806200035c6000396000f3fe6080604052600436106101795760003560e01c80638da5cb5b116100cb578063d0e30db01161007f578063db2e21bc11610059578063db2e21bc1461039d578063e0176de8146103b2578063f2fde38b146103c857600080fd5b8063d0e30db01461036a578063d667dcd714610372578063da1f12ab1461038857600080fd5b806393d6855c116100b057806393d6855c1461031e578063a5b6ea8f14610334578063b3ff277d1461035457600080fd5b80638da5cb5b146102e0578063901b20361461030857600080fd5b80635c975abb1161012d578063715018a611610107578063715018a6146102895780637b38314c1461029e5780638456cb59146102cb57600080fd5b80635c975abb1461021f57806367524d62146102495780636cd0f1021461026957600080fd5b80633ad202b51161015e5780633ad202b5146101de5780633f4ba83a146101f45780634a1d0eed1461020957600080fd5b80630b01517c1461018d5780632e1a7d4d146101be57600080fd5b36610188576101866103e8565b005b600080fd5b34801561019957600080fd5b50336000908152600560205260409020545b6040519081526020015b60405180910390f35b3480156101ca57600080fd5b506101866101d9366004610ed1565b6104a0565b3480156101ea57600080fd5b506101ab60025481565b34801561020057600080fd5b50610186610591565b34801561021557600080fd5b506101ab60035481565b34801561022b57600080fd5b50600054600160a01b900460ff1660405190151581526020016101b5565b34801561025557600080fd5b50610186610264366004610ed1565b6105a3565b34801561027557600080fd5b50610186610284366004610ed1565b6105b0565b34801561029557600080fd5b5061018661060f565b3480156102aa57600080fd5b506101ab6102b9366004610eea565b60056020526000908152604090205481565b3480156102d757600080fd5b50610186610621565b3480156102ec57600080fd5b506000546040516001600160a01b0390911681526020016101b5565b34801561031457600080fd5b506101ab60065481565b34801561032a57600080fd5b506101ab60085481565b34801561034057600080fd5b506101ab61034f366004610ed1565b610631565b34801561036057600080fd5b506101ab60075481565b6101866103e8565b34801561037e57600080fd5b506101ab60015481565b34801561039457600080fd5b506127116101ab565b3480156103a957600080fd5b506101866109cf565b3480156103be57600080fd5b506101ab60045481565b3480156103d457600080fd5b506101866103e3366004610eea565b610a14565b6103f0610aa1565b600034116104455760405162461bcd60e51b815260206004820152601860248201527f4d757374206465706f7369742045544820746f20706c6179000000000000000060448201526064015b60405180910390fd5b3360009081526005602052604081208054349290610464908490610f30565b909155505060405134815233907fe1fffcc4923d04b559f4d29a8bfc6cda04eb5b0d3c460751c2402c5c5cc9109c9060200160405180910390a2565b6104a8610aa1565b336000908152600560205260409020548111156105075760405162461bcd60e51b815260206004820152601460248201527f496e73756666696369656e742062616c616e6365000000000000000000000000604482015260640161043c565b3360009081526005602052604081208054839290610526908490610f49565b9091555050604051339082156108fc029083906000818181858888f19350505050158015610558573d6000803e3d6000fd5b5060405181815233907f884edad9ce6fa2440d8a54cc123490eb96d2768479d49ff9c7366125a94243649060200160405180910390a250565b610599610afb565b6105a1610b55565b565b6105ab610afb565b600255565b6105b8610afb565b6103e881111561060a5760405162461bcd60e51b815260206004820152601c60248201527f486f75736520656467652063616e6e6f74206578636565642031302500000000604482015260640161043c565b600155565b610617610afb565b6105a16000610baa565b610629610afb565b6105a1610c12565b600061063b610aa1565b33600090815260056020526040902054829081111561069c5760405162461bcd60e51b815260206004820152601460248201527f496e73756666696369656e742062616c616e6365000000000000000000000000604482015260640161043c565b82600081116107135760405162461bcd60e51b815260206004820152602160248201527f42657420616d6f756e74206d7573742062652067726561746572207468616e2060448201527f3000000000000000000000000000000000000000000000000000000000000000606482015260840161043c565b6004548111156107655760405162461bcd60e51b815260206004820152601a60248201527f42657420616d6f756e742065786365656473206d6178696d756d000000000000604482015260640161043c565b3360009081526005602052604081208054869290610784908490610f49565b90915550506006805490600061079983610f5c565b9190505550600060086107aa610c55565b6107b49190610f8b565b9050600060086107c2610c55565b6107cc9190610f8b565b9050600060086107da610c55565b6107e49190610f8b565b905060006107f48484848b610cb6565b905080156108295760006127106001548361080f9190610fad565b6108199190610fc4565b90506108258183610f49565b9150505b60008360ff168560ff1614801561084557508260ff168460ff16145b801561085457508460ff166007145b905080801561086557506002548910155b156108c25760006003548361087a9190610f30565b6000600355604080518c81526020810183905291945084925033917f256609b3631a3103eba398fc72e575f7cc48472c00621c0a8d3dc8611cddd5fb910160405180910390a2505b88821180156108e85782600760008282546108dd9190610f30565b909155506109009050565b89600860008282546108fa9190610f30565b90915550505b821561092b573360009081526005602052604081208054859290610925908490610f30565b90915550505b80610964576000606461093f8c6001610fad565b6109499190610fc4565b9050806003600082825461095d9190610f30565b9091555050505b604080518b8152602081018590528215158183015260ff88811660608301528781166080830152861660a0820152905133917f219b9ff47df172d8cedea00105fb272c7adad6ccbda3ac86bac1677f155043b0919081900360c00190a2509098975050505050505050565b6109d7610afb565b600080546040516001600160a01b03909116914780156108fc02929091818181858888f19350505050158015610a11573d6000803e3d6000fd5b50565b610a1c610afb565b6001600160a01b038116610a985760405162461bcd60e51b815260206004820152602660248201527f4f776e61626c653a206e6577206f776e657220697320746865207a65726f206160448201527f6464726573730000000000000000000000000000000000000000000000000000606482015260840161043c565b610a1181610baa565b600054600160a01b900460ff16156105a15760405162461bcd60e51b815260206004820152601060248201527f5061757361626c653a2070617573656400000000000000000000000000000000604482015260640161043c565b6000546001600160a01b031633146105a15760405162461bcd60e51b815260206004820181905260248201527f4f776e61626c653a2063616c6c6572206973206e6f7420746865206f776e6572604482015260640161043c565b610b5d610e78565b6000805460ff60a01b191690557f5db9ee0a495bf2e6ff9c91a7834c1ba4fdd244a5e8aa4e537bd38aeae4b073aa335b6040516001600160a01b03909116815260200160405180910390a1565b600080546001600160a01b038381167fffffffffffffffffffffffff0000000000000000000000000000000000000000831681178455604051919092169283917f8be0079c531659141344cd1fd0a4f28419497f9722a3daafe3b4186f6b6457e09190a35050565b610c1a610aa1565b6000805460ff60a01b1916600160a01b1790557f62e78cea01bee320cd4e420270b5ea74000d11b0c9f74754ebdbfc544b05a258610b8d3390565b6000424433600654604051602001610c989493929190938452602084019290925260601b6bffffffffffffffffffffffff19166040830152605482015260740190565b6040516020818303038152906040528051906020012060001c905090565b60008360ff168560ff16148015610cd257508260ff168460ff16145b15610d7b5760068560ff1610610d295760098560ff1660088110610cf857610cf8610fd8565b602081049190910154610d1791601f166101000a900460ff1683610fad565b610d22906004610fad565b9050610e70565b60048560ff1610610d745760098560ff1660088110610d4a57610d4a610fd8565b602081049190910154610d6991601f166101000a900460ff1683610fad565b610d22906002610fad565b5080610e70565b8360ff168560ff161480610d9457508260ff168460ff16145b80610da457508260ff168560ff16145b15610e595760008460ff168660ff1614610dd1578360ff168560ff1614610dcb5785610dd3565b84610dd3565b855b905060078160ff1610610e2957600260098260ff1660088110610df857610df8610fd8565b602081049190910154610e1791601f166101000a900460ff1685610fad565b610e219190610fc4565b915050610e70565b8060ff16600603610e4c57600360098260ff1660088110610df857610df8610fd8565b600a610e17846008610fad565b600a610e66836007610fad565b610d229190610fc4565b949350505050565b600054600160a01b900460ff166105a15760405162461bcd60e51b815260206004820152601460248201527f5061757361626c653a206e6f7420706175736564000000000000000000000000604482015260640161043c565b600060208284031215610ee357600080fd5b5035919050565b600060208284031215610efc57600080fd5b81356001600160a01b0381168114610f1357600080fd5b9392505050565b634e487b7160e01b600052601160045260246000fd5b80820180821115610f4357610f43610f1a565b92915050565b81810381811115610f4357610f43610f1a565b600060018201610f6e57610f6e610f1a565b5060010190565b634e487b7160e01b600052601260045260246000fd5b600060ff831680610f9e57610f9e610f75565b8060ff84160691505092915050565b8082028115828204841417610f4357610f43610f1a565b600082610fd357610fd3610f75565b500490565b634e487b7160e01b600052603260045260246000fdfea26469706673582212204214e02564eb5f71cf67dbaaa49de660c40fbcb9a4ab4667b014c3dffc803a9664736f6c63430008180033",
  "linkReferences": {},
  "deployedLinkReferences": {}
}